{
  "transactions": [
    {
      "hash": "0x07bfabc666fc9c2bef243941b3e5d1e020bf716f9391b065d7d807fb5c8a02cc",
      "transactionType": "CALL",
      "contractName": null,
      "contractAddress": "0xE8c30bf898Bc66077e236a5fB7C50C0D5373171c",
      "function": "mint(string)",
      "arguments": [
        "ipfs://bafybeig37ioir76s7mg5oobetncojcm3c3hxasyd4rvid4jqhy4gkaheg4/?filename=0-PUG.json"
      ],
      "transaction": {
        "from": "0x6AbfFc2e29842932754E125327099899fB08Ae01",
        "to": "0xE8c30bf898Bc66077e236a5fB7C50C0D5373171c",
        "gas": "0x40ff0",
        "value": "0x0",
        "input": "0xd85d3d2700000000000000000000000000000000000000000000000000000000000000200000000000000000000000000000000000000000000000000000000000000057697066733a2f2f62616679626569673337696f6972373673376d67356f6f6265746e636f6a636d3363336878617379643472766964346a71687934676b61686567342f3f66696c656e616d653d302d5055472e6a736f6e000000000000000000",
        "nonce": "0x7a",
        "chainId": "0xaa36a7"
      },
      "additionalContracts": [],
      "isFixedGasLimit": false
    }
  ],
  "receipts": [
    {
      "status": "0x1",
      "cumulativeGasUsed": "0x9a61b0",
      "logs": [
        {
          "address": "0xE8c30bf898Bc66077e236a5fB7C50C0D5373171c",
          "topics": [
            "0xddf252ad1be2c89b69c2b068fc378daa952ba7f163c4a11628f55a4df523b3ef",
            "0x0000000000000000000000000000000000000000000000000000000000000000",
            "0x0000000000000000000000006abffc2e29842932754e125327099899fb08ae01",
            "0x0000000000000000000000000000000000000000000000000000000000000000"
          ],
          "data": "0x",
          "blockHash": "0x8875a5e9e9e8175ffcb651797910da67b7b8371a76516b093e2d4a8051f4afe4",
          "blockNumber": "0x6c861e",
          "transactionHash": "0x07bfabc666fc9c2bef243941b3e5d1e020bf716f9391b065d7d807fb5c8a02cc",
          "transactionIndex": "0x2c",
          "logIndex": "0x22",
          "removed": false
        }
      ],
      "logsBloom": "0x00000000200000000000000000000000000000000000000000000000000000000000000000000000000000000000000000000000000000000000000000000000000000000000000000000008000000010000000000000000000000000000000000000000020000000000000000000800000000001000000000800010000000000000000000000000000000000000000000000000000000000000000000000000000000000000000000000000000000000000000000000000000000000000000000000002000000000000000000000000000000000000000000000000000020000000000000000000000020000000000000004000000000000000000000000000",
      "type": "0x2",
      "transactionHash": "0x07bfabc666fc9c2bef243941b3e5d1e020bf716f9391b065d7d807fb5c8a02cc",
      "transactionIndex": "0x2c",
      "blockHash": "0x8875a5e9e9e8175ffcb651797910da67b7b8371a76516b093e2d4a8051f4afe4",
      "blockNumber": "0x6c861e",
      "gasUsed": "0x2c712",
      "effectiveGasPrice": "0x4ae38afd",
      "from": "0x6AbfFc2e29842932754E125327099899fB08Ae01",
      "to": "0xE8c30bf898Bc66077e236a5fB7C50C0D5373171c",
      "contractAddress": null
    }
  ],
  "libraries": [],
  "pending": [],
  "returns": {},
  "timestamp": 1732060098,
  "chain": 11155111,
  "commit": "81bcd3b"
}